:020000040000FA
:06000000D9EF19F0120017
:020006001200E6
:0600080073EF0FF012007F
:02000E001200DE
:02001000FEFFF1
:0400120000000000EA
:06001800F2EF0FF01200F0
:02001E000600DA
:1000200098340000480F00001000000086340000E3
:10003000CF0100001200000012000000FC010000CF
:100040000400000075340000E10100001100000010
:1000500017340000800000005E0000001000000067
:08006000FB000000020000009B
:08006800D9CFE6FFE1CFD9FF7B
:10007000FE0EDB500C0DF3CFE9FFF4CFEAFF280EA4
:10008000E926010EEA22EF50146E156A14C0F3FF40
:1000900015C0F4FF00D0E552E7CFD9FF12000101EF
:1000A000CB5100D012000101015102E1000E01D03C
:1000B000010E00D01200800E146E2A0E156E166A04
:1000C00014C0E6FF15C0E6FF16C0E6FFF9EC18F015
:1000D000E552E552E5524E0EE66E2D0EE66E5AD80A
:1000E000E552E552800E146E2A0E156E166A14C083
:1000F000E6FF15C0E6FF16C0E6FFF9EC18F0E55282
:10010000E552E552400E146E2A0E156E166A14C0A2
:10011000E6FF15C0E6FF16C0E6FFF9EC18F0E55261
:10012000E552E552130E146E2A0E156E166A14C0AF
:10013000E6FF15C0E6FF16C0E6FFF9EC18F0E55241
:10014000E552E552F10E146E290E156E166A14C0B2
:10015000E6FF15C0E6FF16C0E6FFF9EC18F0E55221
:10016000E552E5524E0EE66E2D0EE66E13D8E552C0
:10017000E552800E146E2A0E156E166A14C0E6FF44
:1001800015C0E6FF16C0E6FFF9EC18F0E552E5529F
:10019000E5521200D9CFE6FFE1CFD9FFFD0EDB50CB
:1001A00008E0FE0EDBCFE6FF3BD9E552FD0EDB0695
:1001B000F5D7E552E7CFD9FF12000101005111E157
:1001C000E40E146E290E156E166A14C0E6FF15C0F3
:1001D000E6FF16C0E6FFF9EC18F0E552E552E552ED
:1001E0002ED0030EE66E42EC13F0E552DA0E166ED8
:1001F000290E176E186A16C0E6FF17C0E6FF18C072
:10020000E6FF35EC13F0F3CF19F0F4CF1AF019C074
:10021000E6FF1AC0E6FF00EC17F01B6E050EE15E6C
:100220001B50F3CF14F0F4CF15F014C0E6FF15C047
:10023000E6FF56EC13F0E552E55268EC13F01200BD
:10024000AD0E146E290E156E166A14C0E6FF15C0A9
:10025000E6FF16C0E6FFF9EC18F0E552E552E5526C
:100260001200D9CFE6FFE1CFD9FFFD0EDBCF06F0BC
:10027000FE0EDBCF07F0030E061801E1075001E187
:1002800088D0020E061801E1075041E0010E061861
:1002900001E1075001E0C0D0010100512FE0030E41
:1002A000E66E42EC13F0E552930E166E000E176EDA
:1002B000186A16C0E6FF17C0E6FF18C0E6FF35EC67
:1002C00013F0F3CF19F0F4CF1AF019C0E6FF1AC0FB
:1002D000E6FF00EC17F01B6E050EE15E1B50F3CF3E
:1002E00014F0F4CF15F014C0E6FF15C0E6FF56EC8D
:1002F00013F0E552E55268EC13F008D0930EE66E69
:10030000000EE66E2BEC19F0E552E55285D00101A6
:10031000005136E0030EE66E42EC13F0E5520101A7
:100320002751E66EE66A2651E66EE66A9F0E166E65
:10033000290E176E186A16C0E6FF17C0E6FF18C030
:10034000E6FF35EC13F0F3CF19F0F4CF1AF019C033
:10035000E6FF1AC0E6FF00EC17F01B6E090EE15E27
:100360001B50F3CF14F0F4CF15F014C0E6FF15C006
:10037000E6FF56EC13F0E552E55268EC13F008D0B6
:10038000BD0EE66E000EE66E2BEC19F0E552E5525E
:1003900043D0010100512FE0030EE66E42EC13F052
:1003A000E552930E166E290E176E186A16C0E6FFF8
:1003B00017C0E6FF18C0E6FF35EC13F0F3CF19F0D5
:1003C000F4CF1AF019C0E6FF1AC0E6FF00EC17F0F0
:1003D0001B6E050EE15E1B50F3CF14F0F4CF15F049
:1003E00014C0E6FF15C0E6FF56EC13F0E552E552E7
:1003F00068EC13F010D0840E146E290E156E166A78
:1004000014C0E6FF15C0E6FF16C0E6FFF9EC18F0D1
:10041000E552E552E55200D0E552E7CFD9FF120090
:10042000D9CFE6FFE1CFD9FFACA2FED7FE0EDBCFDE
:10043000E6FFB2EC19F0E552E552E7CFD9FF120022
:100440000101010E006FCC6B0CEC13F00101266B67
:10045000276B150EE66EE66A7C0EE66E3AEC18F037
:10046000E552E552E5520101005102E124DEA5DE2C
:1004700012000101005100D0120075EC19F0E66E77
:1004800001012651EA6A060FE96E010EEA22E552E1
:10049000E750EF6E262B26511F0801E2266B120053
:1004A00001012751265D01E160D02751EA6A060F5C
:1004B000E96E010EEA22EFCF01F1272B27511F0829
:1004C00001E2276B00054DE1CC51030A3AE0010A35
:1004D00030E0030A17E0010A01E042D001C1CEF189
:1004E0001B0E015D09E1000507E13F0EE66E98DF96
:1004F000E5520101010ECC6FFE0E015D02E1020E1C
:10050000CC6F2ED0019B4F0E015D07E101C1CEF1F2
:1005100001C1E6FF85DFE5520BD0490E015D07E121
:100520004F0ECE5D04E1006BC6DD47DE01D0CC6B23
:1005300017D0FF0E015D03E1030ECC6F01D0CC6B31
:100540000FD0FF0E015D07E10D0EE66E0FD8E552EC
:100550000101CC6B04D001C1E6FF08D8E55200D000
:1005600004D001C1E6FF02D8E5521200D9CFE6FF60
:10057000E1CFD9FFE652FE0EDB5003E1FE0E01C1D2
:10058000DBFF0001010E926FFE0EDB500D0831E122
:100590009051911102E111DE2BD090C0E9FF91C082
:1005A000EAFF902B000E9123880EE926010EEA2225
:1005B0000D0EEF6E90C0E9FF91C0EAFF902B000E88
:1005C0009123880EE926010EEA22EF6AC1D80108BC
:1005D00005E10001925101E0F0DD07D0020EE66E68
:1005E000E66A3FDEE552E552E8DD0001906B916B73
:1005F000A8D0FE0EDB502F083FE1010100513CE185
:1006000000019051911124E1DF6A430EDF5C17E293
:10061000DF50EA6A880FE96E010EEA22EF500D08FA
:100620000CE1DF50EA6A880FE96E010EEA22EF6AF8
:10063000DF500001906F916B02D0DF2AE6D7880E61
:10064000E66E010EE66E2BEC19F0E552E55213D082
:1006500090C0E9FF91C0EAFF902B000E9123880E15
:10066000E926010EEA22FE0EDBCFEFFFFE0EDBCF06
:10067000E6FFD6DEE55265D00001430E901901E198
:1006800091510AE1010EE66EE66AEBDDE552E552B4
:100690000001906B916B55D0FE0EDB50080811E104
:1006A000010100510EE100019051911109E0FE0E8F
:1006B000DBCFE6FFB5DEE55200019007000E915B4F
:1006C00040D0FE0EDBCFE6FFE66AA1EC16F0E55265
:1006D000E552F3CF14F0F4CF15F0145015100BE0E1
:1006E000FE0EDBCFE6FFE66ADAEC16F0E552E552E5
:1006F000FE0EF3CFDBFFFE0EDBCFE6FFE66AB3ECC8
:1007000016F0E552E552F3CF14F0F4CF15F0145083
:10071000151017E0000190C0E9FF91C0EAFF902B8F
:10072000000E9123880EE926010EEA22FE0EDBCF91
:10073000EFFF0101005105E1FE0EDBCFE6FF70DEA9
:10074000E5520101016BE552E552E7CFD9FF1200F6
:10075000D9CFE6FFE1CFD9FF070EE126050EDB6A10
:10076000060EDB6ADE6ADD6A020EDB6A030EDB6AF6
:10077000DECF14F0DDCF15F0D890155004E6430E0F
:10078000145C000E155801E3AED0DECFE9FFDDCFDB
:10079000EAFF880EE926010EEA22040EEFCFDBFF06
:1007A000DBCF16F0176A16BE176816C0E6FF17C033
:1007B000E6FFC5EC16F0E552E552F3CF14F0F4CFA6
:1007C00015F0145015101CE0060EDB5006E0020E6A
:1007D000DB06030E01E2DB0612D0020EDBCFE9FFDF
:1007E000030EDBCFEAFF880EE926010EEA22040E93
:1007F000DBCFEFFF010EF36E060EF3CFDBFF69D008
:10080000040EDB503D0836E1020EDBCFE9FF030E9C
:10081000DBCFEAFFE906000EEA5A880EE926010E50
:10082000EA22EF50200813E1020EDB06030E01E27C
:10083000DB06020EDBCFE9FF030EDBCFEAFF880EFB
:10084000E926010EEA22040EDBCFEFFF0DD0020EE7
:10085000DBCFE9FF030EDBCFEAFF880EE926010EAE
:10086000EA22040EDBCFEFFF010EF36E060EF3CF8C
:10087000DBFF2FD0040EDB500D081CE1020EDBCF96
:10088000E9FF030EDBCFEAFF880EE926010EEA221C
:100890000D0EEF6E020EDBCFE9FFDB2A030EDBCF7E
:1008A000EAFF01E3DB2A880EE926010EEA22EF6A5D
:1008B0001AD00FD0020EDBCFE9FF030EDBCFEAFF29
:1008C000880EE926010EEA22040EDBCFEFFF060EAA
:1008D000DB6ADF2A010E01E3DB2A020EDB2A030EAC
:1008E00001E3DB2A45D7DE6ADD6ADECF14F0DDCF17
:1008F00015F0D890155004E6080E145C000E15583B
:1009000037E2020EDB6A030EDB6A020EDBCF14F065
:10091000030EDBCF15F0D890155004E60C0E145CD6
:10092000000E155820E2DECF14F0DDCF15F00C0ECE
:100930001502F3CF15F01402F3CF14F0F45015267E
:10094000280E1426010E1522020EDB501424E96E27
:10095000030EDB501520EA6EEF6A020EDB2A030E4F
:1009600001E3DB2AD2D7DF2A010E01E3DB2ABDD760
:10097000020EDB6A030EDB6ADE6ADD6ADECF14F08C
:10098000DDCF15F0D890155004E6430E145C000E30
:10099000155853E2DECFE9FFDDCFEAFF880EE926E6
:1009A000010EEA22040EEFCFDBFFDB50200804E04B
:1009B000040EDB503D0807E1050EDB2A020EDB6A60
:1009C000030EDB6A35D0040EDB5004E0040EDB506E
:1009D0000D0802E132D02CD0020EDBCF14F0030E52
:1009E000DBCF15F0D890155004E60B0E145C000E0A
:1009F00015581CE2050EDB500C0DF3CF14F0F4CFAC
:100A000015F0280E1426010E1522020EDB501424B8
:100A1000E96E030EDB501520EA6E040EDBCFEFFF0C
:100A2000020EDB2A030E01E3DB2A02D0000E07D000
:100A3000DF2A010E01E3DB2AA1D70DD800D0146E06
:100A4000070EE15C02E2E16AE552E16E1450E55204
:100A5000E7CFD9FF1200D9CFE6FFE1CFD9FF030ED0
:100A6000E1267F0E146E290E156E166A14C0E6FF7D
:100A700015C0E6FF16C0E6FF280EE66E010EE66E14
:100A8000F1EC17F0176E050EE15E175000090BE14F
:100A9000EBEC0EF0010EE66E8FEC13F0E552000168
:100AA000926B010EC5D1790E146E290E156E166A61
:100AB00014C0E6FF15C0E6FF16C0E6FF280EE66E7E
:100AC000010EE66EF1EC17F0176E050EE15E1750A1
:100AD000000933E1030EE66E42EC13F0E552200EFE
:100AE000E66EE66A610E166E290E176E186A16C05B
:100AF000E6FF17C0E6FF18C0E6FF35EC13F0F3CFB2
:100B000019F0F4CF1AF019C0E6FF1AC0E6FF00ECA6
:100B100017F01B6E070EE15E1B50F3CF14F0F4CFFD
:100B200015F014C0E6FF15C0E6FF56EC13F0E552D1
:100B3000E55268EC13F0010E7BD15D0E146E290EA8
:100B4000156E166A14C0E6FF15C0E6FF16C0E6FF74
:100B5000280EE66E010EE66EF1EC17F0176E050E2C
:100B6000E15E1750000965E17F0E146E290E156EC7
:100B7000166A14C0E6FF15C0E6FF16C0E6FF340E85
:100B8000E66E010EE66EF1EC17F0176E050EE15EF3
:100B90001750000904E15DEC0EF0010E49D1340E4E
:100BA000E66E010EE66E21EC0EF0E552E552F00E17
:100BB000E66E99EC0DF0E552E66899EC0DF0E55221
:100BC000010EE66E8EEC0DF0E552030EE66E42EC81
:100BD00013F0E552340EE66E010EE66E4B0E166E05
:100BE000290E176E186A16C0E6FF17C0E6FF18C078
:100BF000E6FF35EC13F0F3CF19F0F4CF1AF019C07B
:100C0000E6FF1AC0E6FF00EC17F01B6E070EE15E70
:100C10001B50F3CF14F0F4CF15F014C0E6FF15C04D
:100C2000E6FF56EC13F0E552E55268EC13F0010EC6
:100C3000FFD0470E146E290E156E166A14C0E6FF1B
:100C400015C0E6FF16C0E6FF280EE66E010EE66E42
:100C5000F1EC17F0176E050EE15E175000094DE13B
:100C6000800E146E2A0E156E166A14C0E6FF15C0AB
:100C7000E6FF16C0E6FFF9EC18F0E552E552E55242
:100C8000420E146E290E156E166A14C0E6FF15C0CA
:100C9000E6FF16C0E6FF340EE66E010EE66EF1ECDE
:100CA00017F0176E050EE15E1750000926E1400EA1
:100CB000E66E010EE66E2CEC16F0E552E552F350AE
:100CC000E8B08B84E8A08B948B50040B01E0010EFC
:100CD000E66EE66A300E146E290E156E166A14C0A2
:100CE000E6FF15C0E6FF16C0E6FFA5EC17F0176E8D
:100CF000050EE15E1750010E9BD02A0E146E290ED0
:100D0000156E166A14C0E6FF15C0E6FF16C0E6FFB2
:100D1000280EE66E010EE66EF1EC17F0176E050E6A
:100D2000E15E1750000930E1800E146E2A0E156E38
:100D3000166A14C0E6FF15C0E6FF16C0E6FFF9EC20
:100D400018F0E552E552E552260E146E290E156E86
:100D5000166A14C0E6FF15C0E6FF16C0E6FF340EA3
:100D6000E66E010EE66EF1EC17F0176E050EE15E11
:100D70001750000909E18A960A0EE66EF5EC19F0A3
:100D8000E5528A86010E54D0210E146E290E156E7E
:100D9000166A14C0E6FF15C0E6FF16C0E6FF280E6F
:100DA000E66E010EE66EF1EC17F0176E050EE15ED1
:100DB000175000093BE1800E146E2A0E156E166A5C
:100DC00014C0E6FF15C0E6FF16C0E6FFF9EC18F008
:100DD000E552E552E552190E146E290E156E166A8B
:100DE00014C0E6FF15C0E6FF16C0E6FF340EE66E3F
:100DF000010EE66EF1EC17F0176E050EE15E17506E
:100E0000000914E1FC0E146E280E156E166A14C04B
:100E1000E6FF15C0E6FF16C0E6FFF9EC18F0E55254
:100E2000E552E5520101010E006FCC6B000E00D0BF
:100E3000146E030EE15C02E2E16AE552E16E1450C9
:080E4000E552E7CFD9FF1200D3
:080E480060EC0CF0FB0EDBCFA7
:100E5000F3FFDB06F35000090AE0AEEC0CF0FA0EEB
:100E600019EC0DF0F3E1151CF1E1010E01D0000EBB
:100E70008FEF0CF060EC0CF03B0EE12402E3E16834
:100E8000E652E16E010EDB6A020EDB6AF90EDBCF81
:100E9000F6FFFA0EDBCFF7FFFB0EDBCFF8FF080003
:100EA000F550DF6EDF5002E1B3EF0BF0250EDF5C93
:100EB00002E0A6EF0BF0030EDB6A040EDB6A050E00
:100EC000DB6A060EDB6A070EDB6AC8EC0BF02D0E40
:100ED000DF5C0CE02B0EDF5C09E0200EDF5C06E03F
:100EE000230EDF5C03E0300EDF5C1AE1DF50300AD6
:100EF00014E0130A0FE0030A0AE00B0A05E0060AF1
:100F0000E4E1030EDB80E1D7030EDB82DED7030EC4
:100F1000DB84DBD7030EDB86D8D7030EDB88D5D77F
:100F20002A0EDF5C1BE1C4EC0BF012EC0CF010E0BD
:100F3000030EDB8006680768130EDBCF0BF0140E80
:100F4000DBCF0CF0DFEC12F0040E04C0DBFF03D0AB
:100F5000130EFBEC0BF0C8EC0BF00BD0090EDB6AA8
:100F600069EC0CF003E0DDEC0CF0FAD7090EFBECB9
:100F70000BF0030EDBB0DB982E0EDF5C1BE1C8EC40
:100F80000BF02A0EDF5C0BE1C4EC0BF012EC0CF062
:100F900003E1130E4DEC0CF0C8EC0BF00BD0090E76
:100FA000DB6A69EC0CF003E0DDEC0CF0FAD7090E1B
:100FB0004DEC0CF0680EDF5C07E1C8EC0BF0680E3E
:100FC000DF5C1DE1030E18D0740EDF5C17E07A0EB3
:100FD000DF5C14E0480EDF5C06E0540EDF5C03E0EB
:100FE0005A0EDF5C02E1020E07D06C0EDF5C03E0FC
:100FF0006A0EDF5C04E1010EA0EC0CF0C9DBDF50EF
:101000006E0A01E17FD31E0A01E192D1200A01E1BB
:101010008FD13F0A01E149D11A0A01E146D10D0AF7
:1010200001E143D1200A01E140D13A0A01E13DD179
:10103000200A01E13AD1260A01E135D10D0A01E188
:1010400032D11A0A01E1D9D0200A4AE0300A1FE061
:10105000460A0EE0250A01E083D3D950F90FE96E64
:10106000FF0EDA20EA6E010EEE5E000EEE5AEE5A28
:10107000AEEC0CF0250EE66E95DB03E1151C01E1EC
:1010800069D3AAEC0CF001E26BD3DB2A69D3080E1A
:10109000DB6A040EDB50010806E2040EDB0472EC8E
:1010A0000CF0DB508BDB080EDB5009E0030EDB504D
:1010B000010B05E172DB01E04DD3080EDB6A64DB56
:1010C000EFCFDFFF22EC0DF003E1151C01E142D36D
:1010D000AAEC0CF001E3DB2A60DB01E141D33AD357
:1010E000070EDB5002080FE1EEEC0CF0030EB5EC3E
:1010F0000CF00E0EEECFDBFF0F0EEECFDBFF100E6F
:10110000EECFDBFF20D0F70EDBCF17F0F80EDBCFF2
:1011100018F0020E175E000E185AF70E17C0DBFF0C
:10112000F80E18C0DBFF17C0E9FF18C0EAFFA5ECF6
:101130000CF0166A0E0E14C0DBFF0F0E15C0DBFF9D
:10114000100E16C0DBFF0E0EDBCFE6FF0F0EDBCF5F
:10115000E6FF100EDBCFE6FF15EC18F0E552E55286
:10116000E552130E05C0DBFF140E06C0DBFF060EB2
:10117000DB5005E0130EE9EC0CF001E26ADB0DEC4C
:101180000DF002E2130E37DBD0EC0CF006E0040E9B
:10119000E9EC0CF002E2050E2EDB030EDBB005D00D
:1011A000FCDA01E0D7D2080EDB6A090EDB6A0E0E0C
:1011B000DBCFF6FF0F0EDBCFF7FF100EDBCFF8FF14
:1011C0000800F550DF6EDF5014E013EC0DF011E273
:1011D00022EC0DF003E1151C01E1BCD2BBDB01E305
:1011E000DB2A090EDB2AD9500E0FE96E000ECBDB8D
:1011F000E7D7D3DA01E1B4D2ADD2C6DA110EEECF21
:10120000DBFF120EEDCFDBFF110EDBCFE6FF120E80
:10121000DBCFE6FF07EC18F0E552E552130EF3CFF3
:10122000DBFF140EF4CFDBFF060EDB5004E0130EE1
:10123000D0DB01E20EDB0DEC0DF002E2130EDBDA87
:10124000AFDB05E0040EC5DB02E2050ED4DA030EC7
:10125000DBB005D0A2DA01E07DD2080EDB6A090E10
:10126000DB6A110EDBCFE9FF120EDBCFEAFFEFCF17
:10127000DFFFDF5014E0D7DB12E2E4DB03E1151CF3
:1012800001E168D267DB01E3DB2A090EDB2A110EDC
:10129000DB2ADBCFE9FF120EE8E3DB2AE6D77DDAB3
:1012A00001E15ED257D2030EDB8E070EDB0410E1A4
:1012B00095DB040E5ADB0A0EEECFDBFF0B0EEECFF2
:1012C000DBFF0C0EEECFDBFF0D0EEECFDBFF6CD0A5
:1012D000070EDB5003082CE1030EDBAE0DD0B2DAB3
:1012E000020E76DAEFCF14F0156A166A176A14AE9A
:1012F00039D01568166835D0F70EDBCF15F0F80E2B
:10130000DBCF16F0020E155E000E165AF70E15C052
:10131000DBFFF80E16C0DBFF15C0E9FF16C0EAFFC1
:10132000EFCF14F00A0E14C0DBFF0B0EDB6A38D0CF
:10133000070EDB50020809E1030EDBAE04D059DBD7
:1013400016AE10D00ED055DB0DD0030EDBAE12D092
:1013500079DA020E3DDAF9DA166A176A15AE02D0AA
:1013600016681768E2DA0C0E16C0DBFF0D0E17C008
:10137000DBFF1AD0F70EDBCF16F0F80EDBCF17F03D
:10138000020E165E000E175AF70E16C0DBFFF80E9F
:1013900017C0DBFF16C0E9FF17C0EAFFD6DAC5DACF
:1013A0000C0EDB6A0D0EDB6A060EDB5005E1010E4A
:1013B000F36E050EF3CFDBFF150EDB6A160EDB6A4C
:1013C000D950370F146E000EDA20156E390E14C086
:1013D000DBFF3A0E15C0DBFF380EDB6A080EDB6A56
:1013E0000A0EAEDADF50780A12E0200A10E0280A6E
:1013F0000CE0200A0AE03F0A06E00D0A02E0200A9B
:1014000008E1020E05D0080E03D0080EDF26100EEC
:1014100097DA030EDBBE02D0DB92DB94DB50800B4D
:1014200024E08ADAD890030EEB50000A08E6000E9A
:10143000EE5C000EEE58000EEE58000EEE5815E26F
:1014400013DA09680A680B680C68C1EC18F00A0E18
:1014500000C0DBFF0B0E01C0DBFF0C0E02C0DBFF88
:101460000D0E03C0DBFF2D0E08D0030EDBA202D051
:101470002B0E03D0DBA408D0200EF36E170EF3CF93
:10148000DBFF150EDB2A02D0170EDB6A050EDB50E0
:1014900003E1B7D901E189D0060E146E340E156E42
:1014A000000E166E070EDBCF17F0186A196A1A6A5B
:1014B00017C009F018C00AF019C00BF01AC00CF0E0
:1014C000D3D951EC19F014500024F36E15500120BB
:1014D000F46E16500220F86EF4CFF7FFF3CFF6FF4C
:1014E0000800090EF5CFDBFF580EDF5C0FE1610E3F
:1014F000F36E090E7BD90AE3200E146E090EDBCFC2
:10150000E7FF1450E75E090EE7CFDBFF070EDBCFE6
:1015100014F0156A166A176A0FDA14C009F015C0BC
:101520000AF016C00BF017C00CF0EECF04F0EECFAF
:1015300005F0EECF06F0EFCF07F051EC19F007C041
:10154000EDFF06C0EDFF05C0EDFF04C0EFFF390E53
:10155000DBCFE9FFDB063A0EDBCFEAFF01E2DB0679
:10156000090EDBCFEFFF150EDB2A4BD995E1030EF9
:10157000DBA61DD06F0EDF5C06E1C1D918E3150EA6
:10158000DB285BDA14D0780EDF5C09E0580EDF5CF4
:1015900006E0620EDF5C03E0420EDF5C08E1020E53
:1015A000F36E160EF3CFDBFF02D0150EDB6A030ECF
:1015B000DB50100B0EE0040EDBCF14F0050EDB50F9
:1015C000D880145406E2060EDB5003E1040EDB5013
:1015D00034DA95D90AE2050EDBCFE7FF150EDB50B2
:1015E000E75E050EE7CFDBFF02D0050EDB6A040ED7
:1015F000DBCF14F0160E45D9D880145414E2160E21
:10160000DBCFE6FF150EDBCFE6FF040EDBCFE6FFF8
:10161000050EDB50E552E75CE552D880E754E55211
:10162000D880E7545FD9030EDB50010B0BE1080EA5
:10163000DB5008E0B2D801E08DD0080EDB50BED8F8
:10164000080EDB6A170EDB5007E088D9170EF1D9B8
:1016500003E1151C01E17ED0160EDB5016E07ED9A9
:10166000300EE66E9FD802E1151C74E077D9DFCF0B
:10167000E6FF7FEC18F0E552E552E552F4CF15F0A5
:101680000001F31C02E1151C65E0050EDBCF14F030
:10169000160EDB50D880145409E2050EDBCFE7FFAD
:1016A000160EDB50E75E050EE7CFDBFF300EE66E71
:1016B000050ECBD94FE1390EDB2ADBCFE9FF3A0E1D
:1016C00001E3DB2ADBCFEAFF090EEFCFDBFFDB50C4
:1016D0000EE044D9090EADD902E1151C3BE0390EEC
:1016E000DB2ADBCFE9FF3A0EEDE3DB2AEBD755D857
:1016F00031E1160EDBCFE6FF080EC3D8E552E72432
:101700005DD82ED0070EDB50030A1CE0010A14E05E
:10171000030A07E07BD9DBCFEEFF020EDBCFEDFF44
:101720001FD0F5D8196A17AE02D0186819682CD8DE
:10173000BCD819C0EEFF14D0EAD817BE186824D858
:10174000B4D80ED063D9DBCFEFFF0AD07BD905E147
:10175000151C03E1F368F46810D0FCD801E3DB2A20
:1017600079D94FEF07F0010EDBCF14F0020EDBCF7B
:1017700015F014C0F3FF15C0F4FF3B0EE15C02E26C
:10178000E16AE552E16ECBD029D9020EB5EF0CF03B
:1017900061D90800F550DF6E1200200EE66E080ECB
:1017A00025EF0DF07FEC18F0E552E552E552F3CF4E
:1017B00014F0F4CF15F00001F31C1200146E156A3A
:1017C000D950010F4DD91450EE261550ED221200BC
:1017D000185E000E195AF70E18C0DBFFF80E19C07C
:1017E000DBFF18C0E9FF19C0EAFF1200DBCFF4FFEE
:1017F000F350F45C1200DB50E76E040EE7CFDBFF22
:1018000012000A0EDBCF14F00B0EDBCF15F00C0E1E
:10181000DBCF16F00D0EDBCF17F01450151016109D
:1018200017101200130EEECFDBFF140EEDCFDBFF0F
:10183000130EDBCF14F0140EDBCF15F00001800E79
:1018400015141200F70EDBCF18F0F80EDBCF19F0ED
:101850001200050EDB50E66ED950130F01D9E55288
:10186000E750EE6EED6A12000A0EDBCF04F00B0EAD
:10187000DBCF05F00C0EDBCF06F00D0EDBCF07F053
:101880001200DBCFE6FF150EDBCFE6FF050EDB50C7
:10189000E552E724E552E7241200DB50CED8010ED2
:1018A000F36E060EF3CFDBFF1200EE50EFCFEAFF30
:1018B000E96E16C0EEFF17C0EEFF18C0EEFF120073
:1018C000D9CFE6FFDACFE6FFE1CFD9FFE2CFDAFFEB
:1018D0001200DFCFE6FFE66AEEEC16F0E552E552C5
:1018E000F3501200E76E080EE7CFDBFF1200EECFD9
:1018F00014F0EECF15F0EFCF16F0176A1200050EB8
:10190000DBCF14F0150EDB50D88014541200010EFA
:10191000DBCF16F0020EDBCF17F0186A1200E5528B
:10192000E5CFDAFFE7CFD9FF12000A0E14C0DBFFC4
:101930000B0E15C0DBFF1200D9500A0F30EF0DF06F
:10194000F36E070EF3CFDBFF1200EECF14F0EFCFF4
:1019500015F01200010EDB2A020E1200FC0EDBCF86
:10196000E6FFFD0EDBCFE6FF1200145E000E155AF7
:10197000F70E14C0DBFFF80E15C0DBFF14C0E9FF43
:1019800015C0EAFF1200DA20EA6EEF2AEECFF6FF6A
:10199000000EEF22EECFF7FFEF22EECFF8FF12009E
:1019A000040EDBCFE6FF130EDB50E552E75C9ADF57
:1019B000DB5004DF060EDB501200090EDB500A0D6F
:1019C000F350DF24D00FE76E090EE7CFDBFFC8EF3F
:1019D0000BF0DB50F36E050EF6EF0BF0F70EDBCFDE
:1019E00014F0F80EDBCF15F01200DFCFE6FFD2EFD8
:1019F0000BF028DF030EECDE77EF0CF024EC07F0A1
:101A0000E552E552E552E55200091200BDDEEE5006
:101A1000EFCFEAFFE96E010E1200130EDB50F36EFA
:101A2000040EF6EF0BF0040EDB50F36E090EF6EF2A
:101A30000BF0DBCFE6FFD2EF0BF0E76E050EE7CF42
:101A4000DBFF12008BDFF5EF0CF0DBCFE6FF86DF6C
:101A5000FEEF0CF0D950F90FE96EFF0EC3EF0CF05A
:0A1A6000E96E000EDA20EA6E1200B3
:061A6A003F0EC716C66A1C
:101A70009488949A9496938AC78CC688C79EC68287
:101A8000C68A0F01436B446B0A0E476F456B8D800E
:101A900012000F01400E006F0D0E016F030E026F5A
:101AA0001200D9CFE6FFE1CFD9FF0F01010E005F91
:101AB000000E015B025B00510111021125E1F70EDE
:101AC000146E2A0E156E166A14C0E6FF15C0E6FFE6
:101AD00016C0E6FFF9EC18F0E552E552E552FD0EAE
:101AE000DBCF14F0FE0EDBCF15F0166A14C0E6FF54
:101AF00015C0E6FF16C0E6FFF9EC18F0E552E55216
:101B0000E5528D80010E02D0000E00D0E552E7CFE5
:101B1000D9FF12000F01455100D01200D9CFE6FFC6
:101B2000E1CFD9FFFE0EDBCF45FFE552E7CFD9FF6E
:101B30001200D9CFE6FFE1CFD9FF0F014351432B6C
:101B4000EA6A030FE96E0F0EEA22FE0EDBCFEFFF0B
:101B50004351400800E2E552E7CFD9FF1200D9CF48
:101B6000E6FFE1CFD9FFE6520F014451442BEA6A68
:101B7000030FE96E0F0EEA22EFCFDFFF4351445D02
:101B800003E1446B436B456BDF5000D0E552E552F7
:101B9000E7CFD9FF12000F01455104E0E0DFE66E08
:101BA00003D8E5528D801200D9CFE6FFE1CFD9FFEF
:101BB0000F01200E006F4E0E016F026B8D8081BAF7
:101BC0000BD0EE0EE66E2A0EE66E6BDFE552E552A6
:101BD000000901E032D0F3D78D9081AA0BD0DD0E41
:101BE000E66E2A0EE66E5DDFE552E552000901E081
:101BF00024D0F3D7FE0EDBCFE6FF94EC19F0E552CC
:101C000000090BE0CE0EE66E2A0EE66E4ADFE552C4
:101C1000E552000901E011D0EDD7C9CF46FF8D8014
:101C200081BA0BD0C10EE66E2A0EE66E3ADFE5529F
:101C3000E552000901E001D0F3D7E552E7CFD9FF23
:101C40001200D9CFE6FFE1CFD9FFFD0EDBCFE9FFD0
:101C5000FE0EDBCFEAFFEF500EE0FD0EDBCFE9FF1B
:101C6000DB2AFE0EDBCFEAFF01E3DB2AEF50E66E54
:101C700060DFE552EAD70F01010E456FE552E7CF6D
:101C8000D9FF1200D9CFE6FFE1CFD9FFFE0EEA6AF5
:101C9000DB34FE0BEA36E96E000EE926030EEA227B
:101CA000EECF14F0EFCF15F014C0F3FF15C0F4FF22
:101CB00000D0E552E7CFD9FF1200D9CFE6FFE1CF40
:101CC000D9FF060EE126AE0E146E2A0E156E166AA8
:101CD00014C0E6FF15C0E6FF16C0E6FFF9EC18F0E9
:101CE000E552E552E552030EDB6A0A0EF36E030E6F
:101CF000DBCFF4FFF350F45C64E2030EDB50300DF5
:101D0000020EF3CFDBFFDB50300FE76E010EE7CFA3
:101D1000DBFF2E0EE66E10EC02F0E552020EDB50F9
:101D2000DF6E010EDB50DF5C49E2DFCFE6FF3CDF18
:101D3000E552FE0EE66E38DFE552E66835DFE55225
:101D4000E66832DFE5520F014651146E156A14C081
:101D500015F0146A040E14C0DBFF050E15C0DBFF7E
:101D6000DFCFE6FF21DFE552FE0EE66E1DDFE55216
:101D7000E6681ADFE552E66817DFE5520F014651C3
:101D8000146E156AD950040FE96EDACFEAFF1450C9
:101D9000EE261550ED22DF407F0BE96EEA6AD890FF
:101DA000E936EA36000EE926030EEA22040EDBCFFE
:101DB000EEFF050EDBCFEDFFDF2AB3D7030EDB2AE4
:101DC00094D7060EE15C02E2E16AE552E16EE5526B
:101DD000E7CFD9FF1200D9CFE6FFE1CFD9FF030E3D
:101DE000E126E66AE1DEE552FE0EE66EDDDEE55254
:101DF000E668DADEE552E668D7DEE552F70E0F0157
:101E0000465D11E0920E146E2A0E156E166A14C00D
:101E1000E6FF15C0E6FF16C0E6FFF9EC18F0E55244
:101E2000E552E5524AD0DF6ADF50146E156AD89049
:101E3000155004E6F00E145C000E15583EE2E668FC
:101E4000B3DEE5520F014651146E156A14C015F049
:101E5000146A010E14C0DBFF020E15C0DBFFDF5059
:101E6000146E156AEF0E141801E1155005E1F70E16
:101E7000E66E9ADEE55203D0E66896DEE5520F0183
:101E80004651146E156AD950010FE96EDACFEAFF98
:101E90001450EE261550ED22EA6ADF34FE0BEA36C6
:101EA000E96E000EE926030EEA22010EDBCFEEFFFB
:101EB000020EDBCFEDFFDF2AB7D7030EE15C02E2B3
:101EC000E16AE552E16EE552E7CFD9FF12000F015A
:101ED000476B12000A0E0F01475D02E0000E01D0B1
:061EE000010E00D012000B
:0A1EE600DACFE4FFE2CFDAFFE9CF24
:101EF000E4FFEACFE4FFF6CFE4FFF7CFE4FFF5CF4E
:101F0000E4FFF3CFE4FFF4CFE4FFFACFE4FF00EE09
:101F100000F0140EE80403E3EECFE4FFFBD700EE7D
:101F200014F0080EE80403E3EECFE4FFFBD7E6521B
:101F3000F282010E000932E08A88E20E0001E025FB
:101F4000E96E000E0001E121EA6E83CFEFFF000190
:101F5000100EE05D000EE15906E30001010EDE6F98
:101F6000F298F2921BD00001E02B000EE123E20E6A
:101F70000001E025E96E000E0001E121EA6EEF6A42
:101F80000A0EE66EF5EC19F0E5528A988A960A0E6A
:101F9000E66EF5EC19F0E5528A86F292E55200EE13
:101FA0001BF0080EE80403E3E5CFEDFFFBD700EEDE
:101FB00013F0140EE80403E3E5CFEDFFFBD7E5CF04
:101FC000FAFFE5CFF4FFE5CFF3FFE5CFF5FFE5CF6F
:101FD000F7FFE5CFF6FFE5CFEAFFE5CFE9FFE5CF75
:101FE000DAFF1100DACFE4FFE2CFDAFFE9CFE4FF56
:101FF000EACFE4FFF6CFE4FFF7CFE4FFF5CFE4FF4D
:10200000F3CFE4FFF4CFE4FFFACFE4FF00EE00F0FB
:10201000140EE80403E3EECFE4FFFBD700EE14F068
:10202000080EE80403E3EECFE4FFFBD7E65222EC10
:1020300016F09EAA03D03DEC02F09E9AE55200EE07
:102040001BF0080EE80403E3E5CFEDFFFBD700EE3D
:1020500013F0140EE80403E3E5CFEDFFFBD7E5CF63
:10206000FAFFE5CFF4FFE5CFF3FFE5CFF5FFE5CFCE
:10207000F7FFE5CFF6FFE5CFEAFFE5CFE9FFE5CFD4
:10208000DAFF1100D9CFE6FFE1CFD9FF020EE1263A
:10209000DF6ADF50100817E3DF50EA6AE20FE96EEB
:1020A000000EEA22010EEFCFDBFF010EDB5001E153
:1020B0000AD0ACA2FED7010EDBCFE6FFB2EC19F0DE
:1020C000E552DF2AE6D7030E0001E06FE16B020E56
:1020D000E15C02E2E16AE552E16EE552E7CFD9FF49
:1020E0001200D9CFE6FFE1CFD9FF8A96FD0EDBCFF4
:1020F000E6FFF5EC19F0E5528A86E552E7CFD9FF05
:1021000012000001DE51020A53E0020A48E0010A0F
:1021100001E04FD00101010EF16FA7EC15F070EC5A
:1021200011F005C014F006C015F007C016F008C085
:1021300017F00A6A960E0B6E180E0C6E460E0D6E98
:1021400014C005F015C006F016C007F017C008F05F
:102150008CEC11F022EC12F004C0F3F005C0F4F0A6
:1021600006C0F5F007C0F6F00001DE6B0001010EBD
:10217000E46F88DFE66810EC02F0E5520A0EE66EC6
:10218000F5EC19F0E5528A988A960A0EE66EF5EC9F
:1021900019F0E5528A860001DE6BF2880AD00AD86F
:1021A00050EC02F034D8CBEC0DF09AEC13F001D0E7
:1021B00000D012000101F10529E1A7EC15F004504F
:1021C0000001F35D05500001F45906500001F55976
:1021D00007500001F6591AE20101F16BF298000173
:1021E000020EE46F4FDFE66810EC02F0E552F28871
:1021F0000A0EE66EF5EC19F0E5528A988A960A0EF8
:10220000E66EF5EC19F0E5528A86F2921200A7EC20
:1022100015F004500001F75D05500001F859065013
:102220000001F95907500001FA591CE2A7EC15F01A
:1022300004C0F7F005C0F8F006C0F9F007C0FAF0E6
:10224000960E0001F727980E0001F823000E0001FA
:10225000F923000E0001FA230A0EE66EE66A41DF5A
:10226000E552E55212009568938093989396938473
:1022700094948A948B948A988A869690969296944F
:1022800020EC02F0D08E9F9AF28EF28CF19EF19C9F
:10229000F288F2920001FE0EE26F0001E369000194
:1022A000010EE46F0001E56B030E0001E06FE16BCE
:1022B0000A0EE66EE66A15DFE552E5520001F76B9D
:1022C000F86BF96BFA6B8CEC15F0E66A8FEC13F097
:1022D000E55235EC0DF00001DE6B13DFFED7120086
:1022E0000F9E0CD00F9E07AE09D0046C051E061E73
:1022F000071EE86A0522062207220F8E07C001F09A
:1023000006C000F005C013F004C012F09E0E026E6D
:10231000036A75EF12F00D7E0F6AB1EC12F0C9EC92
:1023200012F00FB659EF12F00FA20AD00FAA03D085
:102330000FBE59EF12F00FA465EF12F062EF12F02A
:102340000FAA05D00FAC65EF12F062EF12F00FA0EC
:102350000AD00FA808D00FBE04D00FA402D06EEF91
:1023600012F072EF12F0126A036A0D50085C116EDF
:1023700010E305C013F006C000F007C001F008C06C
:1023800010F00AC005F00BC006F00CC007F00F3AC1
:1023900009D00AC013F00BC000F00CC001F00DC052
:1023A00010F0116C0F9E0FBC0F8E10C002F00FB01A
:1023B000A1EF12F01A0E1160A1EF12F0026A086A82
:1023C0000FA408D0056C061E071E081EE86A062228
:1023D000072208220FAC08D0136C001E011E021E3B
:1023E000E86A002201220222046A115207E008343E
:1023F0000732063205320432112EF9D70550132662
:1024000006500022075001220850022204C012F098
:102410000F9E02AE0BD0126C131E001E011E021E78
:10242000E86A13220022012202220F8E02A006D0A7
:10243000D8800132003213321232102A10C002F05A
:1024400075EF12F00F6AB1EC12F00FB62CEF12F02C
:102450000FA20FD00FB407D07F0E076EFF0E066ECF
:10246000056E046E25D0800E076E01D0076A000E3F
:10247000F6D70FB0FBD7046A9F0E0860EBD77E0E2D
:102480000864F4D79E0E085C07E0D8900732063245
:1024900005320432082AF6D70FA40AD0046C051EB0
:1024A000061E071EE86A05220622072207AEDED7AF
:1024B00012007F0E086EFF0E076E066E056E12008C
:1024C0007F0E0FBEFF0E086E02D07F0E086E800ECC
:1024D000076E066A056AF3D70FAE04D0800E086E49
:1024E000076AF7D7086A076AF4D70150001013107B
:1024F0001210F8E003BEF0D701BE0CD0025003105A
:10250000EBE0D89012361336003601360206D8A01A
:102510000306F2D70350D4E10228D2E012AE11D064
:102520007F0E121402E113A00CD0132AE86A0022D5
:10253000012207E3D880013200321332022A022836
:10254000BFE00250C9E013C005F000C006F001343E
:10255000076E0230086E0732089E0FBE088E5FEFCE
:1025600012F00736083602E30F840F7E06E10F8073
:10257000086A076A066A056A1200082803E0D8801C
:1025800007321200D890073202E10F8212000F8644
:1025900012000C360D3602E30F8C0F7E06E10F8819
:1025A0000D6A0C6A0B6A0A6A12000D2803E0D880D3
:1025B0000C321200D8900C32EAE10F8A120007C0E8
:1025C00013F006C012F006500B02F4CF05F0F3CF63
:1025D00004F007500C02F4CF07F0F3CF06F00B0223
:1025E000F3500526F4500622E86A072212500C0226
:1025F000F3500526F4500622E86A07220CAE05EFD8
:1026000013F01250065E1350075A13AE000C0B5015
:08261000065E0C50075A000C95
:08261800D9CFE6FFE1CFD9FFA5
:10262000E652DF6ADF50146E156A153404E2145066
:10263000C008000E15540EE30F0EDF14E66EDF50D7
:10264000EA6A000FE96E020EEA22E552E750EF6EE9
:10265000DF2AE8D70201FE0E006F0169020EC06F8B
:10266000E552E552E7CFD9FF12000201C051156AC9
:10267000000F146E020E152214C0F3FF15C0F4FFF4
:1026800000D01200D9CFE6FFE1CFD9FFC5DF0201AC
:10269000C051EA6A000FE96E020EEA22FE0EDBCF9D
:1026A000EFFFC02BE552E7CFD9FF1200D9CFE6FFED
:1026B000E1CFD9FFFD0EDBCF14F0FE0EDBCF15F01E
:1026C000010E14240201C027E552E7CFD9FF120002
:1026D000D9CFE6FFE1CFD9FFE6520201C051EA6A45
:1026E000000FE96E020EEA22EF68DF6A0201C051B4
:1026F000D880DF540FE3ACA2FED7DF50EA6A000FA8
:10270000E96E020EEA22EF50E66EB2EC19F0E552E5
:10271000DF2AECD7E552E552E7CFD9FF1200D9CF37
:10272000E6FFE1CFD9FFFE0EDBCFC3F2E552E7CFE4
:10273000D9FF1200D9CFE6FFE1CFD9FF030EE12682
:102740000201C35101E1A6D06AEC0FF0000901E1DA
:10275000A1D0DF6A0A0EDF5C6EE2DF5005E1050EF4
:10276000E66E90DFE5520CD00F0EDF5C05E1070E40
:10277000E66E88DFE55204D0060EE66E83DFE55292
:1027800002010B0EC06FC0513C083BE3C12B000E91
:10279000C223DFCFE6FF0B0EC05DFE0BE842E66E04
:1027A00083D8E552E552DE52F3CFDEFFF4CFDDFFF2
:1027B000DD52FF0EE76E010EDBCF14F0020EDBCF11
:1027C00015F0E7501416156A0201C029EA6A000FD5
:1027D000E96E020EEA2214C0EFFF010EDBCF14F007
:1027E000020EDBCF15F015C014F0156AC051EA6A6D
:1027F000000FE96E020EEA2214C0EFFF020EC0279E
:10280000C2D739EC02F0000914E00201C051C02B1C
:10281000EA6A000FE96E020EEA22550EEF6EC05111
:10282000C02BEA6A000FE96E020EEA22AA0EEF6ED2
:102830004FDFDF2A8FD70201C36B030EE66E22DF64
:10284000E552200EE66EE66A830E166E2A0E176EAD
:10285000186A16C0E6FF17C0E6FF18C0E6FF05DFDE
:10286000F3CF19F0F4CF1AF019C0E6FF1AC0E6FF53
:1028700000EC17F01B6E070EE15E1B50F3CF14F057
:10288000F4CF15F014C0E6FF15C0E6FF0FDFE552E8
:10289000E5521EDF030EE15C02E2E16AE552E16E01
:1028A000E552E7CFD9FF1200D9CFE6FFE1CFD9FF3C
:1028B000020EE126FE0EDBCFE6FFFD0EDB50180D0B
:1028C000F350E552E724E66E42EC0EF0E552F3CF0A
:1028D000DEFFF4CFDDFFDECF14F0DDCF15F014C046
:1028E000F3FF15C0F4FF020EE15C03E200D0E16AE1
:0C28F000E552E16EE552E7CFD9FF12007F
:0428FC005061737341
:10290000616E646F2070617261206D6F646F206210
:10291000696E6172696F0D0A0042494E4152494F1A
:10292000004D4F444F004C50540052455345540005
:102930005061706572206F7574203D202575200DE3
:102940000A00504F55540053455400456E76696156
:102950006E646F205350492025730D0A00523132A6
:10296000000943656E746175726F207374617475CC
:1029700073203D2025750D0A0047455449440053F6
:1029800043414E000D0A205350492054696D656F34
:102990007574005350492054696D656F7574004516
:1029A00072726F3A2025752025750D0A000A0D31C7
:1029B00032333435363738393031323334353637CF
:1029C00038393031323334353637383930313233C3
:1029D000343536373839300A0D0043454E544155A9
:1029E000524F3A000D0A43454E544155524F3A3E1C
:1029F000004F707573204369656E636961204C7484
:102A000064612E202D20323031312F32303132208E
:102A10000D0A005365676D656E746F7320646520E1
:102A2000436F6469676F202D204469726569746F14
:102A3000732052657365727661646F73200D0A00AE
:102A4000436F6E74726F6C61646F722043656E7455
:102A50006175726F202D204275696C64205665681F
:102A600069636C652044796E616D696373202D2004
:102A700056657273616F20392E312E38200D0A0091
:102A80000D0A005363616E20656E766961646F0D97
:102A90000A000D0A206C6F61644261746368206EE5
:102AA000616F20686162696C69746F7520004361B1
:102AB00072726567616E646F2064612053504920B3
:102AC000006E61206C696265726163616F006E61A6
:102AD000207472616E736D697373616F006E612033
:102AE0007065726D697373616F20435453006E6F2C
:102AF000207265736574000D0A202D2D2D2D2D2D4E
:102B00002D2D2D2D2D2D2D2D2D2053504920546947
:072B10006D656F7574200074
:082B1800D76AD66AF194F29429
:102B2000F28A870ED56E1200F28A0000F29AD6CF92
:102B300058FFD7CF59FFFCC15AFFFDC15BFFFEC153
:102B40005CFFFFC15DFFF2B4EFD7F28A1200ECDF49
:102B500058CF04F059CF05F05ACF06F05BCF07F0FD
:102B600000D01200D9CFE6FFE1CFD9FF040EE12655
:102B7000DBDF59CFDFFF010E5ACFDBFF020E5BCF49
:102B8000DBFF030E5CCFDBFFDECF04F0DECF05F012
:102B9000DECF06F0DDCF07F0DD52DD52040EE15C42
:102BA00003E200D0E16AE552E16EE552E7CFD9FFDA
:102BB0001200D9CFE6FFE1CFD9FF040EE126B4DF42
:102BC0005ACFDFFF010E5BCFDBFF020E5CCFDBFFD6
:102BD000030E5DCFDBFFDECF04F0DECF05F0DECFEE
:102BE00006F0DDCF07F0DD52DD52040EE15C03E2BA
:102BF00000D0E16AE552E16EE552E7CFD9FF12005D
:102C0000D9CFE6FFE1CFD9FFFB0EDBCF04F0FC0EFE
:102C1000DBCF05F0FD0EDBCF06F0FE0EDBCF07F0BD
:102C2000090E0426000E052206220722130E096E45
:102C30000A6A0B6A0C6A51EC19F000D0E552E7CF32
:102C4000D9FF1200F2A407D00101FC2B000EFD23D6
:082C5000FE23FF23F2941200A1
:082C5800FF0EE3CFEAFFE55295
:102C6000FF0EE3CFE9FFE552E66AE66AD9CFE6FF59
:102C7000DACFE6FFFC0EE124D96EFF0EE220DA6E19
:102C8000E66AE66AE66A200EEF5C06E0090EEF5C93
:102C900003E0EF6603D03FD0EE50F5D72D0EEF5C8A
:102CA00003E1FF0EE32A03D02B0EEF5C01E1EE50AF
:102CB0002F0EEF6424D03A0EEF6021D0D890F90E99
:102CC000E336FA0EE336FD0EDECFE3FFFE0EDDCF78
:102CD000E3FFD890F90EE336FA0EE336D890F90EFA
:102CE000E336FA0EE336FD0EE350DE26FE0EE35029
:102CF000DD22300EEE5CDE26000EDD22D9D7FF0E7F
:102D0000E3CFE8FFE85207E0F90EE31EE32AFA0EEC
:102D1000D8B4E306E31EE552E552E552FF0EE3CFD9
:102D2000DAFFE552FF0EE3CFD9FFE552E1CFE9FF2D
:102D3000E2CFEAFFED52ED52EECFF3FFEFCFF4FF1B
:022D400012007F
:0E2D4200F36AF46AFF0EE124E96EFF0EE22050
:102D5000EA6EED6607D0600EEF6404D07B0EEF6084
:102D600001D0F32A1200F36AF46AFF0EE124E96E3F
:102D7000FF0EE220EA6EED6607D01F0EEF6404D06E
:102D80007F0EEF6001D0F32A1200F36AF46AFF0E9F
:102D9000E124E96EFF0EE220EA6EED660AD0200E15
:102DA000EF5C06E0080EEF6404D00E0EEF6001D079
:102DB000F32A1200FF0EE124E96EFF0EE220EA6E14
:102DC000EDCFF4FFEFCFF3FFF46607D0600EF364AE
:102DD00004D07B0EF36001D0F39A1200F36AF46A18
:102DE000FF0EE124E96EFF0EE220EA6EED6607D0E9
:102DF0002F0EEF6404D03A0EEF6001D0F32A1200D8
:102E0000D9CFE6FFDACFE6FFE1CFD9FFE2CFDAFF95
:102E1000E652E652E652E652D950F90F146EFF0E12
:102E2000DA20156E020E14C0DBFF030E15C0DBFFA7
:102E3000020EDBCFE6FF030EDBCFE6FFF90EDBCFA2
:102E4000E6FFFA0EDBCFE6FFFB0EDBCFE6FFD95045
:102E5000FC0FE66EFF0EDA20E66E3AEC07F0146E19
:102E6000070EE15C02E2E16AE552E16E1450F3CF35
:102E7000DEFFF4CFDDFFFC0EDBCFE9FFFD0EDBCF85
:102E8000EAFFEF6ADECF14F0DDCF15F014C0F3FFD8
:102E900015C0F4FF040EE15C02E2E16AE552E16E66
:0C2EA000E552E5CFDAFFE7CFD9FF1200C2
:042EAC001E0EF66E92
:102EB000000EF76E000EF86E01010900F550F76F75
:102EC0000900F550F86F03E1F76701D03DD0090024
:102ED000F550F26F0900F550F36F0900F550F46FEB
:102EE00009000900F550E96E0900F550EA6E090085
:102EF00009000900F550F56F0900F550F66F09005B
:102F00000900F6CFF9F1F7CFFAF1F8CFFBF1F2C1F2
:102F1000F6FFF3C1F7FFF4C1F8FF0101F55302E139
:102F2000F65307E00900F550EE6EF507F8E2F607F4
:102F3000F9D7F9C1F6FFFAC1F7FFFBC1F8FF0101AC
:0A2F4000F707000EF85BBFD7120080
:062F4A00D9CFE6FFDACF4B
:102F5000E6FFE1CFD9FFE2CFDAFFE652E652E652D2
:102F6000E652D950FB0F146EFF0EDA20156E14C016
:102F7000DEFFDD6EDECFE6FFDDCFE6FFFB0EDBCF53
:102F8000E6FFFC0EDBCFE6FFFD0EDBCFE6FFFBC06E
:102F9000E6FFFCC0E6FF3AEC07F0146E070EE15CBA
:102FA00002E2E16AE552E16E1450020EF3CFDBFF5C
:102FB000030EF4CFDBFF020EDBCF14F0030EDBCFEA
:102FC00015F014C0F3FF15C0F4FF040EE15C02E23B
:102FD000E16AE552E16EE552E5CFDAFFE7CFD9FFCE
:022FE0001200DD
:0E2FE200FB0EE3CFF6FFFC0EE3CFF7FFFD0E74
:102FF000E3CFF8FFFE0EE3CFE9FFFF0EE3CFEAFFDA
:103000000900F550EF5C02E1EE66FAD71200FE0E01
:10301000E3CFE9FFFF0EE3CFEAFFF36AF46AEE5273
:1030200003E0F34AF42AFBD71200FF0EE3CFF8FFC8
:10303000E552FF0EE3CFF7FFE552FF0EE3CFF6FFB9
:10304000E552E66AE66AE66A0900F55209E0FD0E15
:10305000E32A05E1FE0EE32A02E1FF0EE32AF4D79C
:10306000FD0EE3CF05F0FE0EE3CF06F0FF0EE3CF3B
:0430700007F0120053
:0C307400D9CFE6FFDACFE6FFE1CFD9FFAD
:10308000E2CFDAFFAC6AAB6AFD0EDBB0AC88DBA244
:1030900002D0AC8CAB8CDBB4AC8EDBA602D0AB88A0
:1030A00001D0AB8ADBB8AC849E98DBBAAB86DBACD4
:1030B00002D09D8A01D09D9A9E9ADBAE02D09D8857
:1030C00001D09D98FB0EDB50AF6EFB0EFC0EDBCFEC
:1030D00015F015C014F0156A1450B06EAC8AAB8EA2
:1030E000949C948EAC50100B04E0AC50800B01E12A
:0E30F000948CE552E5CFDAFFE7CFD9FF12004E
:0230FE00D9CF28
:10310000E6FFDACFE6FFE1CFD9FFE2CFDAFFFB0E31
:10311000DBCF14F0FC0EDBCF15F00001800E151490
:103120001AE1FB0EDBCFE9FFFC0EDBCFEAFFEECFAF
:10313000F3FFEDCFF4FFEE2A000EEF22F3CFE9FF0D
:10314000F4CFEAFFFD0EDBCFEFFFEF50156AF36E11
:1031500015C0F4FF10D0FB0EDB50FE0806E1FD0E9B
:10316000DBCFE6FFE7EC19F005D0FD0EDBCFE6FF85
:1031700003EC00F0E552E552E5CFDAFFE7CFD9FFE7
:0231800012003B
:0E31820004500902F3CF00F0F4CF01F00A026E
:10319000F3500126000EF420026E04500B02F3508F
:1031A0000226000EF420036E04500C02F350032696
:1031B00005500902F3500126F4500222000E0322AA
:1031C00005500A02F3500226F450032205500B0268
:1031D000F350032606500902F3500226F45003224E
:1031E00006500A02F350032607500902F350032643
:0231F0001200CB
:0E31F200D9CFE6FFDACFE6FFE1CFD9FFE2CF7B
:10320000DAFFACA2FED7FB0EDBCFF6FFFC0EDBCF66
:10321000F7FFFD0EDBCFF8FF0800F550E66EB2ECCD
:1032200019F0E552D950FB0FE96EFF0EDA20EA6E75
:10323000EFCFF6FFEE2AEFCFF7FF000EEE22EFCF33
:10324000F8FFEE220800F550DCE1E552E5CFDAFFA9
:06325000E7CFD9FF1200D8
:0A325600D9CFE6FFDACFE6FFE1CFA3
:10326000D9FFE2CFDAFFACA2FED7FC0EDBCFE9FF3D
:10327000FD0EDBCFEAFFEF50E66EB2EC19F0E5523F
:10328000FC0EDBCFE9FFDB2AFD0EDBCFEAFF01E31B
:10329000DB2AEF50E8E1E552E5CFDAFFE7CFD9FFCF
:0232A00012001A
:0E32A200036A026A016A006A200EE76ED89085
:1032B0000436053606360736003601360236033642
:1032C0000950005C0A5001580B5002580C5003582A
:1032D00009E30950005E0A50015A0B50025A0C5083
:0A32E000035A042AE72EE4D7120077
:0632EA00D9CFE6FFDACFA8
:1032F000E6FFE1CFD9FFE2CFDAFFE652F20E00019E
:10330000FD17ABAC03D0FD91ABB0FD81ABB4FD8537
:10331000ABB2FD87AE50DF6EDF50E552E552E5CF30
:08332000DAFFE7CFD9FF12002C
:08332800D9CFE6FFDACFE6FF82
:10333000E1CFD9FFE2CFDAFFE652C950DF6E9E96A9
:10334000C69EFD0EDB50C96EC6AE02D0FF0E03D086
:103350009EA6FED7000EE552E552E5CFDAFFE7CF95
:04336000D9FF12007F
:0C336400D9CFE6FFDACFE6FFE1CFD9FFBA
:10337000E2CFDAFFACAC04D0AC900001FDB3AC807E
:10338000FD0EDB50AD6EE552E5CFDAFFE7CFD9FF9A
:02339000120029
:0E339200800EF36E00EE00F00F0E01D8120058
:1033A000EA6002D0EE6AFCD7F350E9601200EE6AE0
:0233B000FCD748
:0E33B2001EEE00F02EEE00F0F86A0F9C56ECB6
:0E33C00017F007EC00F033EC11F0FBD7120011
:0233CE00FF0EF0
:1033D000E350ACBA04D0AF6AAB8EAC8A949CACA27A
:0A33E000FED7AD6EF36EF46A120022
:0633EA00FF0EE3501C6E13
:1033F0001B0E00D001D0200EE76EE72EFED71C2E4C
:06340000FAD700D0120013
:0A34060030313233343536373839AF
:073410006162636465660060
:09341700303132333435363738D8
:10342000394142434445460000000D0A4572726F1F
:10343000202121202D204F76657272756E206E6FCF
:103440002062756666657220646520636F6D616ECB
:10345000646F73000D0A4572726F202121202D20A8
:10346000436F6D616E646F20446573636F6E686552
:053470006369646F00B8
:0B3475003031323334353637383941FE
:06348000424344454600F2
:0A348600303132333435363738392F
:0834900041424344454600039C
:08349800303132333435363790
:0834A00038394142434445461E
:020000040030CA
:0100010002FC
:010002001FDE
:010003001EDE
:010005008179
:010006008178
:010008000FE8
:01000900C036
:01000A000FE6
:01000B00E014
:01000C000FE4
:01000D0040B2
:00000001FF
